:100000000C9469000C9491000C9491000C94910054
:100010000C9491000C9491000C9491000C9491001C
:100020000C9491000C9491000C9491000C9491000C
:100030000C9491000C9491000C9491000C949100FC
:100040000C9416060C9491000C9454080C94970888
:100050000C9491000C9491000C9491000C949100DC
:100060000C9491000C949100E2000B0126013D01DB
:100070004E017C018601AF01B301DE0100000007E3
:100080000002010000030406000000000000000060
:10009000010204081020408001020408102001021F
:1000A00004081020040404040404040402020202EC
:1000B00002020303030303030000000025002800DD
:1000C0002B0000000000240027002A0080055309AF
:1000D000AD0511241FBECFEFD8E0DEBFCDBF11E0CC
:1000E000A0E0B1E0ECE5FEE102C005900D92AA317E
:1000F000B107D9F722E0AAE1B1E001C01D92A03515
:10010000B207E1F710E0C0EDD0E004C02297FE0195
:100110000E941D0FCC3CD107C9F70E94B5070C9473
:100120009F0E0C9400008FE291E00E94A90984E4E4
:1001300091E00E94A90989E591E00E94A9098EE653
:1001400091E00E94A90983E891E00C94A9090F931A
:100150001F93CF93DF938C01C0E0D0E0C8010E94D1
:10016000CB0BC817D90768F440E060E080E00E943C
:10017000C20B9B01AC01BE01C8010E945D0B219620
:10018000EDCFC801DF91CF911F910F910C94410ADF
:100190000F931F93CF93DF938C01EB01CB010E9450
:1001A000A7000A30110508F00DC1F801EC5CFF4F03
:1001B00000E010E00C941B0F0F5F1F4F033211057E
:1001C00009F400C10E311105BCF7409100016091A6
:1001D000020180912D010E94C20B9B01AC01B8016C
:1001E000CE010E945D0BE8CF0931110574F44091F6
:1001F00000016091020180912D010E94C20B9B01C0
:10020000AC01B801CE010E945D0B0F5F1F4F03329E
:10021000110509F4D7C00F30110530F7F6CF0F974D
:10022000059770F0409100016091020180912D01CD
:100230000E94C20B9B01AC01B801CE010E945D0B74
:100240000F5F1F4F0332110509F4BCC0C8010597A9
:100250008530910520F7F4CF0A30110574F04091F4
:1002600000016091020180912D010E94C20B9B014F
:10027000AC01B801CE010E945D0B0F5F1F4F03322E
:10028000110551F79FC0C8010A978530910550F4B8
:100290000F5F1F4F0332110509F494C0053011059B
:1002A00090F7F6CF0F97059798F340910001609172
:1002B000020180912D010E94C20B9B01AC01B8018B
:1002C000CE010E945D0BE4CFC8010F97059770F037
:1002D000409100016091020180912D010E94C20BAA
:1002E0009B01AC01B801CE010E945D0B0F5F1F4F57
:1002F0000332110509F466C00530110528F7F6CF61
:100300000F5F1F4F0332110509F45CC0C8010F973E
:100310000597B0F3409100016091020180912D0199
:100320000E94C20B9B01AC01B801CE010E945D0B83
:10033000E7CF0931110574F4409100016091020189
:1003400080912D010E94C20B9B01AC01B801CE012E
:100350000E945D0B0F5F1F4F0332110599F10A30A8
:10036000110538F7F7CF40910001609102018091AB
:100370002D010E94C20B9B01AC01B801CE010E946D
:100380005D0B0F5F1F4F0332110569F71BC0C801DA
:100390004997059770F040910001609102018091AA
:1003A0002D010E94C20B9B01AC01B801CE010E943D
:1003B0005D0B0F5F1F4F0332110521F00530110552
:1003C00030F7F7CFCE01DF91CF911F910F910C94B1
:1003D000410A80912501909126011816190684F191
:1003E0002091270130912801121613062CF483E87E
:1003F00091E00E94A70028C02091290130912A0194
:10040000121613064CF483E891E00E94A7008EE6D2
:1004100091E00E94A70020C020912B0130912C0177
:10042000121613066CF483E891E00E94A7008EE692
:1004300091E00E94A70089E591E00E94A70014C006
:1004400063E871E00E94C8006EE671E080912701C8
:10045000909128010E94C80069E571E0809129010E
:1004600090912A010E94C80064E471E080912B0100
:1004700090912C010C94C800EF92FF920F931F9360
:10048000CF93DF93CDB7DEB727970FB6F894DEBFD3
:100490000FBECDBF8C01FC01828593858F3FFFEF9E
:1004A0009F0709F4A2C1F80120813181223531056D
:1004B000E1F42481358127343105B9F42085318573
:1004C0002234310591F42281338130932E0120931F
:1004D0002D012681378130930301209302019093EF
:1004E0000101809300010E94E901F801808191815E
:1004F0008E349105D9F58481958180359105B1F5CA
:100500008681978182309105E1F064F4019771F55D
:10051000F8018281938190932C0180932B0164E4F4
:1005200071E022C083309105B1F00497F9F4F8012D
:1005300082819381909326018093250163E871E085
:1005400013C0F8018281938190932A01809329013D
:1005500069E571E009C0F8018281938190932801D7
:10056000809327016EE671E00E94C800F801808147
:1005700091818834910509F0E4C0848195818D349E
:10058000910509F0DEC0628173814AE0CE010196D7
:100590000E947607ED80FE80CE0101960E94F00653
:1005A000EA94EF2809F583E891E00E94A700F8019A
:1005B000628173814AE0CE0101960E94760760E075
:1005C00070E0CE0101960E94A307FC01808199276B
:1005D00087FD9095C0979093280180932701CE01C5
:1005E00001960E94F00640C0F801628173814AE0E2
:1005F000CE0101960E94760760E070E0CE01019680
:100600000E94A307FC018081992787FD9095C097E0
:100610009093260180932501CE0101960E94F00659
:10062000F801628173814AE0CE0101960E9476074B
:1006300061E070E0CE0101960E94A307FC01808179
:10064000992787FD9095C097909328018093270163
:10065000CE0101960E94F00663E871E080912501C9
:10066000909126010E94C8006EE671E080912701FA
:10067000909128010E94C800F801668177814AE0C4
:10068000CE0101960E947607ED80FE80CE01019694
:100690000E94F006F80166817781EA94EF2861F400
:1006A00010922A01109229014AE0CE0101960E947F
:1006B000760760E070E023C04AE0CE0101960E9418
:1006C000760760E070E0CE0101960E94A307FC016E
:1006D0008081992787FD9095C09790932A018093F8
:1006E0002901CE0101960E94F006F801668177810A
:1006F0004AE0CE0101960E94760761E070E0CE01EB
:1007000001960E94A307FC018081992787FD90959F
:10071000C09790932C0180932B01CE0101960E94EB
:10072000F00669E571E08091290190912A010E940B
:10073000C80064E471E080912B0190912C010E942B
:10074000C800F801808191818334910551F4828140
:100750009381009711F410922201909324018093C9
:100760002301F8018081918184359105F1F5828121
:100770009381892B61F580912201811128C063E862
:1007800071E080E090E00E94C8006EE671E080E0D9
:1007900090E00E94C80069E571E080E090E00E946E
:1007A000C80064E471E080E090E00E94C80010920C
:1007B0002C0110922B011092280110922701109207
:1007C0002A01109229011092260110922501F801A8
:1007D000828193818130910521F481E0809322010F
:1007E00004C0099711F41092220127960FB6F894CD
:1007F000DEBF0FBECDBFDF91CF911F910F91FF9054
:10080000EF900895CF92DF92EF92FF920F931F9394
:100810000E94600660931A0170931B0180931C0173
:1008200090931D0120912201222309F4D0C0009150
:100830001E0110911F0120912001309121016B01B7
:100840007C01C01AD10AE20AF30A48EEC41643E05A
:10085000D406E104F1040CF4BAC060931E01709355
:100860001F01809320019093210180912B01909191
:100870002C01019790932C0180932B01019689F410
:100880008091290190912A0197FD0BC029E030E069
:1008900030932C0120932B01019790932A01809390
:1008A00029018091290190912A01019689F4809172
:1008B00027019091280197FD0BC025E030E030938F
:1008C0002A01209329010197909328018093270101
:1008D0008091270190912801019689F4809125014A
:1008E0009091260197FD0BC029E030E0309328015C
:1008F00020932701019790932601809325018091F1
:100900002B0190912C01892B09F059C0809129016C
:1009100090912A01892B09F052C080912701909172
:100920002801892B09F04BC0809125019091260167
:10093000892B09F044C01092220110922C011092D0
:100940002B0110922A011092290110922801109275
:10095000270110922601109225018BEE90E09093D2
:100960002E0180932D01109203011092020110922A
:1009700001011092000163E871E080E090E00E94C4
:10098000C8006EE671E080912701909128010E94D5
:10099000C80069E571E08091290190912A010E94C7
:1009A000C80064E471E080912B0190912C011F91AB
:1009B0000F91FF90EF90DF90CF900C94C8001F91A3
:1009C0000F91FF90EF90DF90CF900C94E9011F9171
:1009D0000F91FF90EF90DF90CF9008951F93CF93EA
:1009E000DF9310E0C0E0D0E09E012F5031092231AA
:1009F000310528F4255031092A30310560F440E0F2
:100A0000612F812F0E94C20B9B01AC01BE018EE6BB
:100A100091E00E945D0BCE31D10564F440E0612F7E
:100A2000812F0E94C20B9B01AC01BE0189E591E0C0
:100A30000E945D0B2196C332D105B1F68EE691E09E
:100A40000E94410A89E591E00E94410A6AE070E053
:100A500080E090E00E948F061F5F1B3E19F6DF9139
:100A6000CF911F910895CF93DF93CAE0D0E00E9409
:100A7000EE0421972097D9F783E891E00E94410A7C
:100A80008EE691E00E94410A89E591E00E94410AC8
:100A900084E491E0DF91CF910C94410A40E052EC64
:100AA00061E070E082EA91E00E94D20883E891E080
:100AB0000E94BD098EE691E00E94BD0989E591E0A2
:100AC0000E94BD0984E491E00E94BD098FE291E09B
:100AD0000E94BD0983E891E00E94410A8EE691E000
:100AE0000E94410A89E591E00E94410A84E491E074
:100AF0000E94410A8FE291E00E94410A0C94330562
:100B000022E530E043E063E270E083E891E00E9498
:100B1000350B22E530E045E063E270E08EE691E0DF
:100B20000E94350B22E530E046E063E270E089E5A3
:100B300091E00E94350B22E530E049E063E270E08D
:100B400084E491E00E94350B22E530E04AE062E067
:100B500070E08FE291E00C94350B0C9493000F93AE
:100B60001F93CF93DF93CDB7DEB72C970FB6F894D2
:100B7000DEBF0FBECDBF1A8219821C821B821E826D
:100B80001D8218861F821A8619868FEF9FEF9C8719
:100B90008B874BEE6BEE8BEE0E94C20B9B01AC0180
:100BA00060E070E08FE291E00E945D0B4BEE6BEE37
:100BB0008BEE0E94C20B9B01AC0161E070E08FE202
:100BC00091E00E945D0B8FE291E00E94410A00E0FB
:100BD00010E08B859C850196F1F482EA91E00E94F9
:100BE000C207892B89F082EA91E00E94EB07F801A5
:100BF000EE0FFF1F21E030E02C0F3D1FE20FF31F2F
:100C0000918380830F5F1F4FCE0101960E943C02AB
:100C10000E940204DECF2C960FB6F894DEBF0FBE02
:100C2000CDBFDF91CF911F910F9108951F920F9229
:100C30000FB60F9211242F933F938F939F93AF93EF
:100C4000BF938091990190919A01A0919B01B091DD
:100C50009C013091980123E0230F2D3720F4019659
:100C6000A11DB11D05C026E8230F0296A11DB11DCF
:100C7000209398018093990190939A01A0939B01EE
:100C8000B0939C0180919D0190919E01A0919F0144
:100C9000B091A0010196A11DB11D80939D0190937B
:100CA0009E01A0939F01B093A001BF91AF919F912E
:100CB0008F913F912F910F900FBE0F901F9018951D
:100CC0002FB7F8946091990170919A0180919B01DE
:100CD00090919C012FBF08953FB7F89480919D019A
:100CE00090919E01A0919F01B091A00126B5A89B73
:100CF00005C02F3F19F00196A11DB11D3FBF66270A
:100D0000782F892F9A2F620F711D811D911D42E04E
:100D1000660F771F881F991F4A95D1F70895CF92C4
:100D2000DF92EF92FF92CF93DF936B017C010E94E1
:100D30006C06EB01C114D104E104F10479F00E94C6
:100D40006C066C1B7D0B683E7340A0F381E0C81AF3
:100D5000D108E108F108C851DC4FECCFDF91CF9109
:100D6000FF90EF90DF90CF900895789484B58260E3
:100D700084BD84B5816084BD85B5826085BD85B53F
:100D8000816085BDEEE6F0E0808181608083E1E8EE
:100D9000F0E0108280818260808380818160808326
:100DA000E0E8F0E0808181608083E1EBF0E0808129
:100DB00084608083E0EBF0E0808181608083EAE7FB
:100DC000F0E0808184608083808182608083808184
:100DD000816080838081806880831092C100089543
:100DE000FC01808191810C94E80DCF93DF93EC019D
:100DF00088819981009711F00E94E80D198218826C
:100E00001D821C821B821A82DF91CF9108950F935D
:100E10001F93CF93DF93EC018B016F5F7F4F88812E
:100E200099810E94670C009731F0998388831B8316
:100E30000A8381E001C080E0DF91CF911F910F9183
:100E40000895CF93DF93EC0188819981892B29F054
:100E50008A819B818617970760F4CE010E9407075D
:100E6000882341F08C819D81892B19F4E881F981D7
:100E7000108281E0DF91CF910895EF92FF920F935E
:100E80001F93CF93DF93EC017B018A01BA010E948B
:100E90002107811104C0CE010E94F50607C01D8301
:100EA0000C83B701888199810E94B20ECE01DF9137
:100EB000CF911F910F91FF90EF900895CF93DF9303
:100EC000EC016115710561F0FB0101900020E9F76B
:100ED000AF0141505109461B570B0E943D0702C00C
:100EE0000E94F506CE01DF91CF9108950F931F93D5
:100EF000CF93DF93CDB7DEB762970FB6F894DEBF1E
:100F00000FBECDBF8C01CB01F8011182108213827C
:100F1000128215821482168250E0BE016F5F7F4FED
:100F20000E94B90EBE016F5F7F4FC8010E945E072D
:100F300062960FB6F894DEBF0FBECDBFDF91CF91A2
:100F40001F910F910895FC0184819581681779079D
:100F500020F480819181009729F41092A10181EA07
:100F600091E00895860F971F08950E94B5060E948C
:100F70004E05CEE8D8E00E94AF052097E1F30E942D
:100F80008E08F9CFFC0124853585F901E05CFF4F1F
:100F900080819181329620813181821B930B8F73E6
:100FA00099270895FC0184859585FC01E05CFF4F3D
:100FB000408151813296208131814217530741F09F
:100FC0000190F081E02DE80FF91F808190E00895F5
:100FD0008FEF9FEF0895FC0184859585FC01E05C0F
:100FE000FF4F408151813296208131814217530752
:100FF00079F0A081B181A80FB91F8C912081318136
:101000002F5F3F4F2F7333273183208390E0089564
:101010008FEF9FEF0895FC0181A1882329F0A48917
:10102000B5898C9186FFFBCF11A20895CF93DF93F2
:10103000FC0126853785D901A05CBF4F8D919C911D
:10104000119701968F739927E901CE5BDF4F488195
:10105000598184179507D9F30D90BC91A02DA20F4B
:10106000B31F6C93A685B785A05CBF4F11969C9368
:101070008E93A689B7892C9181E090E0078C02C0FD
:10108000880F991F0A94E2F7282B2C9381E081A303
:101090000488F589E02D80818064808381E090E080
:1010A000DF91CF91089508951F920F920FB60F927E
:1010B00011242F933F934F938F939F93EF93FF931D
:1010C0008091C00082FD1CC04091C6008091480202
:1010D0009091490201968F73992720914A0230918D
:1010E0004B028217930771F0E0914802F091490298
:1010F000E85FFD4F4083909349028093480202C00D
:101100008091C600FF91EF919F918F914F913F91F8
:101110002F910F900FBE0F901F90189582EA91E0CB
:101120000E94C207892B11F00C94530808951F9256
:101130000F920FB60F9211242F933F938F939F938B
:10114000EF93FF93209104023091050280910602F3
:10115000909107022817390731F48091C1008F7DE3
:101160008093C10014C0E0910602F0910702EC5395
:10117000FE4F2081809106029091070201968F73A5
:10118000992790930702809306022093C600FF914F
:10119000EF919F918F913F912F910F900FBE0F90E4
:1011A0001F901895CF92DF92EF92FF92CF93DF932B
:1011B000EC016A017B01411581EE5807610571055B
:1011C000F9F0EC89FD8981E090E008A002C0880F69
:1011D000991F0A94E2F7808360E079E08DE390E064
:1011E000A70196010E94F90E2150310941095109C8
:1011F0005695479537952795211580E1380798F042
:10120000EC89FD89108260E874E88EE190E0A70126
:1012100096010E94F90E2150310941095109569554
:10122000479537952795E889F9893083EA89FB89BD
:10123000208319A2EE89FF89408181E090E09C0122
:101240000C8C02C0220F331F0A94E2F7422B40831A
:10125000EE89FF8940819C010D8C02C0220F331F53
:101260000A94E2F7422B4083EE89FF8940819C017A
:101270000E8C02C0220F331F0A94E2F7422B4083E8
:10128000EE89FF8920810F8C02C0880F991F0A9474
:10129000E2F7809582238083DF91CF91FF90EF90DA
:1012A000DF90CF9008951092A5011092A40188EECE
:1012B00093E0A0E0B0E08093A6019093A701A093F3
:1012C000A801B093A9018EE091E09093A3018093CF
:1012D000A20188E092E09093AF018093AE0184EC8C
:1012E00091E09093B1018093B00185EC90E09093F0
:1012F000B3018093B20184EC90E09093B5018093A8
:10130000B40180EC90E09093B7018093B60181EC3A
:1013100090E09093B9018093B80182EC90E09093B3
:10132000BB018093BA0186EC90E09093BD0180935D
:10133000BC0184E08093BE0183E08093BF0187E01D
:101340008093C00185E08093C10181E08093C20158
:101350000895CF93DF93EC0188859985009711F06C
:101360000E94E80D8E8187FD05C060E0DF91CF917E
:101370000C94F80BDF91CF910895CF93DF93EC019C
:101380008E8187FD07C061E00E94F80B60E08E81CE
:101390000E94310C81E08983DF91CF910895EF9213
:1013A000FF920F931F93CF93DF93EC017B0188850E
:1013B0009985009711F00E94E80D9D858A85981304
:1013C00003C083E090E002C084E090E08E9D800145
:1013D0008F9D100D9E9D100D11241D830C83C8013F
:1013E0000E94500D99878887009741F0A80160E01E
:1013F00070E00E94AB0EFB82EA8204C01D821C8258
:101400001B821A82DF91CF911F910F91FF90EF9075
:101410000895FC0121E095858285981320E0CB0199
:1014200036E0969587953A95E1F7482F43704587C2
:10143000CB0154E0969587955A95E1F7382F337094
:101440003287CB019695879596958795837083878C
:10145000862F8370848781E06F3F710511F008F05B
:1014600080E0808380859185892B51F091E0431342
:1014700090E0921729F062817381CF010C94CF091B
:101480000895CF92DF92EF92FF920F931F93CF9325
:10149000DF93CDB7DEB729970FB6F894DEBF0FBE46
:1014A000CDBF8C01DC0118968D919C911997892BE9
:1014B00009F49AC00E946C06F801C684D784E088BB
:1014C000F1886C197D098E099F09623371058105C8
:1014D000910580F3F894848195819A838983A0850E
:1014E000B1857D01EFEFEE1AFE0A8C918987D80154
:1014F0009C9152960D90BC91A02DF801848999235E
:1015000009F42EC09C91982B98879C9180958923F3
:101510008F838F818E8388E08D8358856F81498585
:101520003D812E8189819A81F7015C9347FD252FAA
:101530003A952C93262F39F0441F00C000006C937D
:10154000000000C0F2CF38E041916C930000019799
:1015500061F7F801B38BA28B49873D832E8338C096
:101560009C91982B98879C91809589238F838F815C
:101570008C8388E08B8358856F8149853B812C81E2
:1015800089819A81F7015C9347FD252F00C000C037
:101590002C9300C000C000C000C000C06C930000CD
:1015A000262F3A9541F0441F000000C000C000C043
:1015B00000C000C0E8CF38E0419100C06C9300C08B
:1015C000019709F7F801B38BA28B49873B832C83E2
:1015D0009A83898378940E946C06D8011E966D9335
:1015E0007D938D939C93519729960FB6F894DEBF07
:1015F0000FBECDBFDF91CF911F910F91FF90EF9064
:10160000DF90CF9008951F93CF93DF93EC01162FB7
:101610008981882331F08E8187FD03C060E00E94BC
:10162000F80B1E838981882341F061E0812F0E949D
:10163000F80B60E0812F0E94310C812F90E0FC01BB
:10164000EC55FF4FE491F0E0EE0FFF1FE854FF4F21
:10165000259134913B8B2A8BFC01E057FF4F8491FD
:101660008C8BDF91CF911F910895EF92FF920F9392
:101670001F93CF93DF931F92CDB7DEB77C018B0111
:10168000FC01118217821186108616861786108A31
:10169000118AB90149830E94090AB801C7010E9451
:1016A000CF094981642FC7010F90DF91CF911F911E
:1016B0000F91FF90EF900C94030BCF92DF92EF927B
:1016C000FF920F931F93CF93DF93FC01828193814D
:1016D0006817790708F04DC0CA01AA27BB27182F41
:1016E000C32ED42EE52EFF24DC2DC22F078100232C
:1016F00061F0809FC0011124192FC09E6001112448
:10170000DD2D209FC0011124C92FF5848285A0857D
:10171000B185F81208C0CB01880F991F860F971F5B
:101720008A0F9B1F17C0CB01880F991F880F991F25
:101730008A0F9B1F452F552766277727DC01AF0DA2
:10174000B11D002329F0409F90011124232F01C0D7
:10175000242F2C932285DC01A20FB11D1C9323851D
:10176000DC01A20FB11DDC932485FC01E20FF11D09
:10177000C083DF91CF911F910F91FF90EF90DF9089
:10178000CF900895962F50E060E070E0592B682BC1
:10179000CB01BA010895FC018281938108958330C1
:1017A00081F028F4813099F08230A1F008958630DC
:1017B000A9F08730B9F08430D1F4809180008F7D1A
:1017C00003C0809180008F7780938000089584B556
:1017D0008F7702C084B58F7D84BD08958091B0005D
:1017E0008F7703C08091B0008F7D8093B000089503
:1017F000CF93DF9390E0FC01E057FF4F2491FC0171
:10180000EC55FF4F8491882349F190E0880F991F90
:10181000FC01EE53FF4FA591B49188549F4FFC01FA
:10182000C591D4919FB7611108C0F8948C9120950F
:1018300082238C93888182230AC0623051F4F89409
:101840008C91322F309583238C938881822B8883CF
:1018500004C0F8948C91822B8C939FBFDF91CF9121
:1018600008950F931F93CF93DF931F92CDB7DEB7E9
:10187000282F30E0F901E458FF4F8491F901E05737
:10188000FF4F1491F901EC55FF4F04910023C9F06B
:10189000882321F069830E94CF0B6981E02FF0E05B
:1018A000EE0FFF1FE854FF4FA591B4919FB7F89436
:1018B0008C91611103C01095812301C0812B8C9301
:1018C0009FBF0F90DF91CF911F910F9108956F925D
:1018D0007F928F929F92AF92BF92CF92DF92EF92C0
:1018E000FF920F931F93CF93DF93EC01CB012097CF
:1018F00081F4DF91CF911F910F91FF90EF90DF90D6
:10190000CF90BF90AF909F908F907F906F900C94EE
:10191000500DFE01E60FF71F9E0122503109E2171C
:10192000F30708F4ACC0D9010D911C91119706176B
:101930001707B8F00530110508F49FC0A8014450FE
:1019400051094617570708F498C002501109061BA1
:10195000170B019311936D937C93CF010E94E80DB7
:101960008CC05B01A01AB10A4E01800E911EA0919D
:101970004E02B0914F02612C712C60E070E0109724
:1019800009F449C0A815B905C9F5ED90FC90119767
:10199000670142E0C40ED11CCA14DB0478F1470190
:1019A0008A189B08640142E0C40ED11C1296BC90B8
:1019B00012971396AC91B5E0CB16D10440F0B282E9
:1019C000A38391828082D9018D939C9309C00E5F7D
:1019D0001F4F0E0D1F1DF90111830083EB2DFA2FF0
:1019E0006115710531F0DB011396FC93EE931297AC
:1019F00044C0F0934F02E0934E023FC06D917C9142
:101A000011976616770608F43B01BD0112960D90FA
:101A1000BC91A02DB4CF60914C0270914D0268151D
:101A20007905E9F468167906D0F4409104015091E3
:101A300005014115510541F44DB75EB760910801AC
:101A400070910901461B570BE417F507C0F4F0939A
:101A50004D02E0934C02F901918380830EC00E94F5
:101A6000500D7C01009759F0A801BE010E94A20E02
:101A7000CE010E94E80DC70104C0CE0102C080E083
:101A800090E0DF91CF911F910F91FF90EF90DF9049
:101A9000CF90BF90AF909F908F907F906F90089560
:101AA000CF93DF938230910510F482E090E0E091D3
:101AB0004E02F0914F0220E030E0A0E0B0E030971D
:101AC00039F14081518148175907B8F04817590733
:101AD00071F482819381109729F013969C938E93D1
:101AE00012972CC090934F0280934E0227C021156D
:101AF000310531F04217530718F0A901DB0101C08D
:101B0000EF019A01BD01DF010280F381E02DD7CF03
:101B100021153105F9F0281B390B2430310580F4EB
:101B20008A819B816115710521F0FB01938382837A
:101B300004C090934F0280934E02FE01329644C03F
:101B4000FE01E20FF31F81939193225031093983F3
:101B500028833AC020914C0230914D02232B41F44E
:101B6000209106013091070130934D0220934C02E1
:101B700020910401309105012115310541F42DB763
:101B80003EB74091080150910901241B350BE091AB
:101B90004C02F0914D02E217F307A0F42E1B3F0B0D
:101BA0002817390778F0AC014E5F5F4F24173507CF
:101BB00048F04E0F5F1F50934D0240934C028193AB
:101BC000919302C0E0E0F0E0CF01DF91CF91089562
:101BD000CF93DF93009709F487C0FC0132971382FB
:101BE0001282C0914E02D0914F02209781F4208141
:101BF0003181280F391F80914C0290914D0282173C
:101C0000930779F5F0934D02E0934C026DC0DE012D
:101C100020E030E0AE17BF0750F412964D915C9172
:101C200013979D014115510509F1DA01F3CFB383F3
:101C3000A28340815181840F951F8A179B0771F4FD
:101C40008D919C911197840F951F029691838083AB
:101C500012968D919C911397938382832115310560
:101C600029F4F0934F02E0934E023EC0D90113963F
:101C7000FC93EE9312974D915D91A40FB51FEA1757
:101C8000FB0779F480819181840F951F0296D90119
:101C900011969C938E938281938113969C938E933D
:101CA0001297E0E0F0E08A819B81009719F0FE0135
:101CB000EC01F9CFCE01029628813981820F931F62
:101CC00020914C0230914D022817390769F4309762
:101CD00029F410924F0210924E0202C01382128217
:101CE000D0934D02C0934C02DF91CF910895CF92D3
:101CF000DF92EF92FF920F931F93CF93DF936C01CC
:101D00007A01EB01E60EF71E00E010E0CE15DF05CC
:101D100061F06991D601ED91FC910190F081E02D87
:101D2000C6010995080F191FF1CFC801DF91CF91A6
:101D30001F910F91FF90EF90DF90CF900895F8944E
:101D40000C94210FFB01DC0102C001900D92415067
:101D50005040D8F70895DC0101C06D9341505040C8
:101D6000E0F70895FB01DC0101900D920020E1F7FE
:101D700008954532510520F4423010F00C94C40E01
:101D8000FB011082CB010895BB274A3031F499231F
:101D900022F4BDE2909581959F4F0C94D00EBB2705
:101DA000FB015527AA27880F991FAA1FA41710F017
:101DB000A41B83955051B9F7A05DAA3308F0A95D23
:101DC000A193009779F7B111B1931192CB010C94C3
:101DD000E90EDC01FC01672F71917723E1F732975F
:101DE00004C07C916D9370836291AE17BF07C8F3F6
:101DF0000895A1E21A2EAA1BBB1BFD010DC0AA1F4C
:101E0000BB1FEE1FFF1FA217B307E407F50720F063
:101E1000A21BB30BE40BF50B661F771F881F991FDE
:101E20001A9469F760957095809590959B01AC0127
:101E3000BD01CF010895EE0FFF1F0590F491E02D35
:101E4000099410E0C0EDD0E004C0FE010E941D0F17
:0C1E50002296C23DD107C9F7F894FFCFDD
:101E5C00EB00EB00000050028000000000001608B0
:0A1E6C00770EC207EB07D2070B0840
:00000001FF
